{
  "_format": "hh-sol-artifact-1",
  "contractName": "WavePortal",
  "sourceName": "contracts/WavePortal.sol",
  "abi": [
    {
      "inputs": [],
      "stateMutability": "payable",
      "type": "constructor"
    },
    {
      "anonymous": false,
      "inputs": [
        {
          "indexed": true,
          "internalType": "address",
          "name": "from",
          "type": "address"
        },
        {
          "indexed": false,
          "internalType": "uint256",
          "name": "timestamp",
          "type": "uint256"
        },
        {
          "indexed": false,
          "internalType": "string",
          "name": "message",
          "type": "string"
        },
        {
          "indexed": false,
          "internalType": "bool",
          "name": "isLucky",
          "type": "bool"
        }
      ],
      "name": "NewWave",
      "type": "event"
    },
    {
      "anonymous": false,
      "inputs": [
        {
          "indexed": false,
          "internalType": "address",
          "name": "user",
          "type": "address"
        }
      ],
      "name": "Waved",
      "type": "event"
    },
    {
      "inputs": [
        {
          "internalType": "address",
          "name": "",
          "type": "address"
        }
      ],
      "name": "accountAccessCounter",
      "outputs": [
        {
          "internalType": "uint256",
          "name": "",
          "type": "uint256"
        }
      ],
      "stateMutability": "view",
      "type": "function"
    },
    {
      "inputs": [
        {
          "internalType": "address",
          "name": "",
          "type": "address"
        }
      ],
      "name": "accountWaveCounter",
      "outputs": [
        {
          "internalType": "uint256",
          "name": "",
          "type": "uint256"
        }
      ],
      "stateMutability": "view",
      "type": "function"
    },
    {
      "inputs": [],
      "name": "getAllWaves",
      "outputs": [
        {
          "components": [
            {
              "internalType": "address",
              "name": "waver",
              "type": "address"
            },
            {
              "internalType": "string",
              "name": "message",
              "type": "string"
            },
            {
              "internalType": "uint256",
              "name": "timestamp",
              "type": "uint256"
            },
            {
              "internalType": "bool",
              "name": "isLucky",
              "type": "bool"
            }
          ],
          "internalType": "struct WavePortal.Wave[]",
          "name": "",
          "type": "tuple[]"
        }
      ],
      "stateMutability": "view",
      "type": "function"
    },
    {
      "inputs": [],
      "name": "getTotalWaves",
      "outputs": [
        {
          "internalType": "uint256",
          "name": "",
          "type": "uint256"
        }
      ],
      "stateMutability": "view",
      "type": "function"
    },
    {
      "inputs": [],
      "name": "getTotalWavesByAccount",
      "outputs": [
        {
          "internalType": "uint256",
          "name": "",
          "type": "uint256"
        }
      ],
      "stateMutability": "view",
      "type": "function"
    },
    {
      "inputs": [
        {
          "internalType": "address",
          "name": "",
          "type": "address"
        }
      ],
      "name": "lastWavedAt",
      "outputs": [
        {
          "internalType": "uint256",
          "name": "",
          "type": "uint256"
        }
      ],
      "stateMutability": "view",
      "type": "function"
    },
    {
      "inputs": [
        {
          "internalType": "string",
          "name": "_message",
          "type": "string"
        }
      ],
      "name": "wave",
      "outputs": [],
      "stateMutability": "nonpayable",
      "type": "function"
    }
  ],
  "bytecode": "0x60806040526200004f6040518060400160405280601f81526020017f457520736f7520756d20636f6e747261746f207665727920736d6172747921008152506200005560201b6200085c1760201c565b620001e9565b620000f5816040516024016200006c919062000162565b6040516020818303038152906040527f41304fac000000000000000000000000000000000000000000000000000000007bffffffffffffffffffffffffffffffffffffffffffffffffffffffff19166020820180517bffffffffffffffffffffffffffffffffffffffffffffffffffffffff8381831617835250505050620000f860201b60201c565b50565b60008151905060006a636f6e736f6c652e6c6f679050602083016000808483855afa5050505050565b60006200012e8262000186565b6200013a818562000191565b93506200014c818560208601620001a2565b6200015781620001d8565b840191505092915050565b600060208201905081810360008301526200017e818462000121565b905092915050565b600081519050919050565b600082825260208201905092915050565b60005b83811015620001c2578082015181840152602081019050620001a5565b83811115620001d2576000848401525b50505050565b6000601f19601f8301169050919050565b61147880620001f96000396000f3fe608060405234801561001057600080fd5b506004361061007d5760003560e01c8063a42a46631161005b578063a42a4663146100ec578063bd43a9081461011c578063cb7929351461013a578063d67be81f146101585761007d565b8063449d46c0146100825780635fe980fb1461009e5780639a2cdc08146100ce575b600080fd5b61009c60048036038101906100979190610c3b565b610188565b005b6100b860048036038101906100b39190610c12565b6105f4565b6040516100c591906110c9565b60405180910390f35b6100d661060c565b6040516100e391906110c9565b60405180910390f35b61010660048036038101906101019190610c12565b610657565b60405161011391906110c9565b60405180910390f35b61012461066f565b6040516101319190610f95565b60405180910390f35b6101426107db565b60405161014f91906110c9565b60405180910390f35b610172600480360381019061016d9190610c12565b610844565b60405161017f91906110c9565b60405180910390f35b42601e600360003373ffffffffffffffffffffffffffffffffffffffff1673ffffffffffffffffffffffffffffffffffffffff168152602001908152602001600020546101d591906111f4565b10610215576040517f08c379a000000000000000000000000000000000000000000000000000000000815260040161020c906110a9565b60405180910390fd5b42600360003373ffffffffffffffffffffffffffffffffffffffff1673ffffffffffffffffffffffffffffffffffffffff16815260200190815260200160002081905550600160008082825461026b91906111f4565b925050819055506102b16040518060400160405280600d81526020017f2573206861732077617665642100000000000000000000000000000000000000815250336108f5565b6000606460015442446102c491906111f4565b6102ce91906111f4565b6102d89190611306565b90506103196040518060400160405280601681526020017f52616e646f6d20232067656e6572617465643a2025730000000000000000000081525082610991565b806001819055506000603282109050600260405180608001604052803373ffffffffffffffffffffffffffffffffffffffff168152602001858152602001428152602001831515815250908060018154018082558091505060019003906000526020600020906004020160009091909190915060008201518160000160006101000a81548173ffffffffffffffffffffffffffffffffffffffff021916908373ffffffffffffffffffffffffffffffffffffffff16021790555060208201518160010190805190602001906103ef929190610af2565b506040820151816002015560608201518160030160006101000a81548160ff021916908315150217905550505061045b6040518060400160405280600d81526020017f636f6d20736f7274653a2025730000000000000000000000000000000000000081525082610a2d565b801561059d576104a06040518060400160405280600781526020017f257320776f6e2100000000000000000000000000000000000000000000000000815250336108f5565b6000655af3107a40009050478111156104ee576040517f08c379a00000000000000000000000000000000000000000000000000000000081526004016104e590611069565b60405180910390fd5b60003373ffffffffffffffffffffffffffffffffffffffff168260405161051490610f80565b60006040518083038185875af1925050503d8060008114610551576040519150601f19603f3d011682016040523d82523d6000602084013e610556565b606091505b505090508061059a576040517f08c379a000000000000000000000000000000000000000000000000000000000815260040161059190611089565b60405180910390fd5b50505b3373ffffffffffffffffffffffffffffffffffffffff167f6d1607feb02544462392cd79bc9fc3cea2a1dd50600d5b503009b84ae27748ca4285846040516105e7939291906110e4565b60405180910390a2505050565b60046020528060005260406000206000915090505481565b600061064f6040518060400160405280601781526020017f5765206861766520256420746f74616c20776176657321000000000000000000815250600054610991565b600054905090565b60036020528060005260406000206000915090505481565b60606002805480602002602001604051908101604052809291908181526020016000905b828210156107d257838290600052602060002090600402016040518060800160405290816000820160009054906101000a900473ffffffffffffffffffffffffffffffffffffffff1673ffffffffffffffffffffffffffffffffffffffff1673ffffffffffffffffffffffffffffffffffffffff16815260200160018201805461071c906112d4565b80601f0160208091040260200160405190810160405280929190818152602001828054610748906112d4565b80156107955780601f1061076a57610100808354040283529160200191610795565b820191906000526020600020905b81548152906001019060200180831161077857829003601f168201915b50505050508152602001600282015481526020016003820160009054906101000a900460ff16151515158152505081526020019060010190610693565b50505050905090565b60006107ff60405180606001604052806027815260200161141c60279139336108f5565b600560003373ffffffffffffffffffffffffffffffffffffffff1673ffffffffffffffffffffffffffffffffffffffff16815260200190815260200160002054905090565b60056020528060005260406000206000915090505481565b6108f2816040516024016108709190610fb7565b6040516020818303038152906040527f41304fac000000000000000000000000000000000000000000000000000000007bffffffffffffffffffffffffffffffffffffffffffffffffffffffff19166020820180517bffffffffffffffffffffffffffffffffffffffffffffffffffffffff8381831617835250505050610ac9565b50565b61098d828260405160240161090b929190610fd9565b6040516020818303038152906040527f319af333000000000000000000000000000000000000000000000000000000007bffffffffffffffffffffffffffffffffffffffffffffffffffffffff19166020820180517bffffffffffffffffffffffffffffffffffffffffffffffffffffffff8381831617835250505050610ac9565b5050565b610a2982826040516024016109a7929190611039565b6040516020818303038152906040527f9710a9d0000000000000000000000000000000000000000000000000000000007bffffffffffffffffffffffffffffffffffffffffffffffffffffffff19166020820180517bffffffffffffffffffffffffffffffffffffffffffffffffffffffff8381831617835250505050610ac9565b5050565b610ac58282604051602401610a43929190611009565b6040516020818303038152906040527fc3b55635000000000000000000000000000000000000000000000000000000007bffffffffffffffffffffffffffffffffffffffffffffffffffffffff19166020820180517bffffffffffffffffffffffffffffffffffffffffffffffffffffffff8381831617835250505050610ac9565b5050565b60008151905060006a636f6e736f6c652e6c6f679050602083016000808483855afa5050505050565b828054610afe906112d4565b90600052602060002090601f016020900481019282610b205760008555610b67565b82601f10610b3957805160ff1916838001178555610b67565b82800160010185558215610b67579182015b82811115610b66578251825591602001919060010190610b4b565b5b509050610b749190610b78565b5090565b5b80821115610b91576000816000905550600101610b79565b5090565b6000610ba8610ba384611153565b611122565b905082815260208101848484011115610bc057600080fd5b610bcb848285611292565b509392505050565b600081359050610be281611404565b92915050565b600082601f830112610bf957600080fd5b8135610c09848260208601610b95565b91505092915050565b600060208284031215610c2457600080fd5b6000610c3284828501610bd3565b91505092915050565b600060208284031215610c4d57600080fd5b600082013567ffffffffffffffff811115610c6757600080fd5b610c7384828501610be8565b91505092915050565b6000610c888383610eff565b905092915050565b610c998161124a565b82525050565b610ca88161124a565b82525050565b6000610cb982611193565b610cc381856111b6565b935083602082028501610cd585611183565b8060005b85811015610d115784840389528151610cf28582610c7c565b9450610cfd836111a9565b925060208a01995050600181019050610cd9565b50829750879550505050505092915050565b610d2c8161125c565b82525050565b610d3b8161125c565b82525050565b6000610d4c8261119e565b610d5681856111d2565b9350610d668185602086016112a1565b610d6f816113f3565b840191505092915050565b6000610d858261119e565b610d8f81856111e3565b9350610d9f8185602086016112a1565b610da8816113f3565b840191505092915050565b6000610dc06034836111e3565b91507f547279696e6720746f207769746864726177206d6f7265206d6f6e657920746860008301527f616e2074686520636f6e7472616374206861732e0000000000000000000000006020830152604082019050919050565b6000610e266027836111e3565b91507f4661696c656420746f207769746864726177206d6f6e65792066726f6d20636f60008301527f6e74726163742e000000000000000000000000000000000000000000000000006020830152604082019050919050565b6000610e8c6029836111e3565b91507f4d7573742077616974203330207365636f6e6473206265666f7265207761766960008301527f6e6720616761696e2e00000000000000000000000000000000000000000000006020830152604082019050919050565b6000610ef26000836111c7565b9150600082019050919050565b6000608083016000830151610f176000860182610c90565b5060208301518482036020860152610f2f8282610d41565b9150506040830151610f446040860182610f62565b506060830151610f576060860182610d23565b508091505092915050565b610f6b81611288565b82525050565b610f7a81611288565b82525050565b6000610f8b82610ee5565b9150819050919050565b60006020820190508181036000830152610faf8184610cae565b905092915050565b60006020820190508181036000830152610fd18184610d7a565b905092915050565b60006040820190508181036000830152610ff38185610d7a565b90506110026020830184610c9f565b9392505050565b600060408201905081810360008301526110238185610d7a565b90506110326020830184610d32565b9392505050565b600060408201905081810360008301526110538185610d7a565b90506110626020830184610f71565b9392505050565b6000602082019050818103600083015261108281610db3565b9050919050565b600060208201905081810360008301526110a281610e19565b9050919050565b600060208201905081810360008301526110c281610e7f565b9050919050565b60006020820190506110de6000830184610f71565b92915050565b60006060820190506110f96000830186610f71565b818103602083015261110b8185610d7a565b905061111a6040830184610d32565b949350505050565b6000604051905081810181811067ffffffffffffffff82111715611149576111486113c4565b5b8060405250919050565b600067ffffffffffffffff82111561116e5761116d6113c4565b5b601f19601f8301169050602081019050919050565b6000819050602082019050919050565b600081519050919050565b600081519050919050565b6000602082019050919050565b600082825260208201905092915050565b600081905092915050565b600082825260208201905092915050565b600082825260208201905092915050565b60006111ff82611288565b915061120a83611288565b9250827fffffffffffffffffffffffffffffffffffffffffffffffffffffffffffffffff0382111561123f5761123e611337565b5b828201905092915050565b600061125582611268565b9050919050565b60008115159050919050565b600073ffffffffffffffffffffffffffffffffffffffff82169050919050565b6000819050919050565b82818337600083830152505050565b60005b838110156112bf5780820151818401526020810190506112a4565b838111156112ce576000848401525b50505050565b600060028204905060018216806112ec57607f821691505b60208210811415611300576112ff611395565b5b50919050565b600061131182611288565b915061131c83611288565b92508261132c5761132b611366565b5b828206905092915050565b7f4e487b7100000000000000000000000000000000000000000000000000000000600052601160045260246000fd5b7f4e487b7100000000000000000000000000000000000000000000000000000000600052601260045260246000fd5b7f4e487b7100000000000000000000000000000000000000000000000000000000600052602260045260246000fd5b7f4e487b7100000000000000000000000000000000000000000000000000000000600052604160045260246000fd5b6000601f19601f8301169050919050565b61140d8161124a565b811461141857600080fd5b5056fe5765206861766520256420746f74616c20776176657320666f7220746865206163636f756e7421a2646970667358221220e3a4b4e942a3e490f6ae5d2090288de4f2b964eafd9bc7f0e4b837a38d74f5fe64736f6c63430008000033",
  "linkReferences": {},
  "deployedLinkReferences": {}
}