{
  "_format": "hh-sol-artifact-1",
  "contractName": "WavePortal",
  "sourceName": "contracts/WavePortal.sol",
  "abi": [
    {
      "inputs": [],
      "stateMutability": "payable",
      "type": "constructor"
    },
    {
      "anonymous": false,
      "inputs": [
        {
          "indexed": true,
          "internalType": "address",
          "name": "from",
          "type": "address"
        },
        {
          "indexed": false,
          "internalType": "uint256",
          "name": "timestamp",
          "type": "uint256"
        },
        {
          "indexed": false,
          "internalType": "string",
          "name": "message",
          "type": "string"
        }
      ],
      "name": "NewWave",
      "type": "event"
    },
    {
      "anonymous": false,
      "inputs": [
        {
          "indexed": false,
          "internalType": "address",
          "name": "user",
          "type": "address"
        }
      ],
      "name": "Waved",
      "type": "event"
    },
    {
      "inputs": [
        {
          "internalType": "address",
          "name": "",
          "type": "address"
        }
      ],
      "name": "accountAccessCounter",
      "outputs": [
        {
          "internalType": "uint256",
          "name": "",
          "type": "uint256"
        }
      ],
      "stateMutability": "view",
      "type": "function"
    },
    {
      "inputs": [
        {
          "internalType": "address",
          "name": "",
          "type": "address"
        }
      ],
      "name": "accountWaveCounter",
      "outputs": [
        {
          "internalType": "uint256",
          "name": "",
          "type": "uint256"
        }
      ],
      "stateMutability": "view",
      "type": "function"
    },
    {
      "inputs": [],
      "name": "getAllWaves",
      "outputs": [
        {
          "components": [
            {
              "internalType": "address",
              "name": "waver",
              "type": "address"
            },
            {
              "internalType": "string",
              "name": "message",
              "type": "string"
            },
            {
              "internalType": "uint256",
              "name": "timestamp",
              "type": "uint256"
            }
          ],
          "internalType": "struct WavePortal.Wave[]",
          "name": "",
          "type": "tuple[]"
        }
      ],
      "stateMutability": "view",
      "type": "function"
    },
    {
      "inputs": [],
      "name": "getTotalWaves",
      "outputs": [
        {
          "internalType": "uint256",
          "name": "",
          "type": "uint256"
        }
      ],
      "stateMutability": "view",
      "type": "function"
    },
    {
      "inputs": [],
      "name": "getTotalWavesByAccount",
      "outputs": [
        {
          "internalType": "uint256",
          "name": "",
          "type": "uint256"
        }
      ],
      "stateMutability": "view",
      "type": "function"
    },
    {
      "inputs": [
        {
          "internalType": "address",
          "name": "",
          "type": "address"
        }
      ],
      "name": "lastWavedAt",
      "outputs": [
        {
          "internalType": "uint256",
          "name": "",
          "type": "uint256"
        }
      ],
      "stateMutability": "view",
      "type": "function"
    },
    {
      "inputs": [
        {
          "internalType": "string",
          "name": "_message",
          "type": "string"
        }
      ],
      "name": "wave",
      "outputs": [],
      "stateMutability": "nonpayable",
      "type": "function"
    }
  ],
  "bytecode": "0x60806040526200004f6040518060400160405280601f81526020017f457520736f7520756d20636f6e747261746f207665727920736d6172747921008152506200005560201b620007d31760201c565b620001e9565b620000f5816040516024016200006c919062000162565b6040516020818303038152906040527f41304fac000000000000000000000000000000000000000000000000000000007bffffffffffffffffffffffffffffffffffffffffffffffffffffffff19166020820180517bffffffffffffffffffffffffffffffffffffffffffffffffffffffff8381831617835250505050620000f860201b60201c565b50565b60008151905060006a636f6e736f6c652e6c6f679050602083016000808483855afa5050505050565b60006200012e8262000186565b6200013a818562000191565b93506200014c818560208601620001a2565b6200015781620001d8565b840191505092915050565b600060208201905081810360008301526200017e818462000121565b905092915050565b600081519050919050565b600082825260208201905092915050565b60005b83811015620001c2578082015181840152602081019050620001a5565b83811115620001d2576000848401525b50505050565b6000601f19601f8301169050919050565b6112b280620001f96000396000f3fe608060405234801561001057600080fd5b506004361061007d5760003560e01c8063a42a46631161005b578063a42a4663146100ec578063bd43a9081461011c578063cb7929351461013a578063d67be81f146101585761007d565b8063449d46c0146100825780635fe980fb1461009e5780639a2cdc08146100ce575b600080fd5b61009c60048036038101906100979190610b16565b610188565b005b6100b860048036038101906100b39190610aed565b610586565b6040516100c59190610f1d565b60405180910390f35b6100d661059e565b6040516100e39190610f1d565b60405180910390f35b61010660048036038101906101019190610aed565b6105e9565b6040516101139190610f1d565b60405180910390f35b610124610601565b6040516101319190610e19565b60405180910390f35b610142610752565b60405161014f9190610f1d565b60405180910390f35b610172600480360381019061016d9190610aed565b6107bb565b60405161017f9190610f1d565b60405180910390f35b42610384600360003373ffffffffffffffffffffffffffffffffffffffff1673ffffffffffffffffffffffffffffffffffffffff168152602001908152602001600020546101d6919061103a565b10610216576040517f08c379a000000000000000000000000000000000000000000000000000000000815260040161020d90610efd565b60405180910390fd5b42600360003373ffffffffffffffffffffffffffffffffffffffff1673ffffffffffffffffffffffffffffffffffffffff16815260200190815260200160002081905550600160008082825461026c919061103a565b925050819055506102b26040518060400160405280600d81526020017f25732068617320776176656421000000000000000000000000000000000000008152503361086c565b600260405180606001604052803373ffffffffffffffffffffffffffffffffffffffff16815260200183815260200142815250908060018154018082558091505060019003906000526020600020906003020160009091909190915060008201518160000160006101000a81548173ffffffffffffffffffffffffffffffffffffffff021916908373ffffffffffffffffffffffffffffffffffffffff16021790555060208201518160010190805190602001906103719291906109cd565b50604082015181600201555050600060646001544244610391919061103a565b61039b919061103a565b6103a59190611140565b90506103e66040518060400160405280601681526020017f52616e646f6d20232067656e6572617465643a2025730000000000000000000081525082610908565b806001819055506032811015610532576104356040518060400160405280600781526020017f257320776f6e21000000000000000000000000000000000000000000000000008152503361086c565b6000655af3107a4000905047811115610483576040517f08c379a000000000000000000000000000000000000000000000000000000000815260040161047a90610ebd565b60405180910390fd5b60003373ffffffffffffffffffffffffffffffffffffffff16826040516104a990610e04565b60006040518083038185875af1925050503d80600081146104e6576040519150601f19603f3d011682016040523d82523d6000602084013e6104eb565b606091505b505090508061052f576040517f08c379a000000000000000000000000000000000000000000000000000000000815260040161052690610edd565b60405180910390fd5b50505b3373ffffffffffffffffffffffffffffffffffffffff167f5f7e16dc676677766a70e9c5628aa6c54ddb8b6e5188e2ae1e1f17f1ffbea716428460405161057a929190610f38565b60405180910390a25050565b60046020528060005260406000206000915090505481565b60006105e16040518060400160405280601781526020017f5765206861766520256420746f74616c20776176657321000000000000000000815250600054610908565b600054905090565b60036020528060005260406000206000915090505481565b60606002805480602002602001604051908101604052809291908181526020016000905b8282101561074957838290600052602060002090600302016040518060600160405290816000820160009054906101000a900473ffffffffffffffffffffffffffffffffffffffff1673ffffffffffffffffffffffffffffffffffffffff1673ffffffffffffffffffffffffffffffffffffffff1681526020016001820180546106ae9061110e565b80601f01602080910402602001604051908101604052809291908181526020018280546106da9061110e565b80156107275780601f106106fc57610100808354040283529160200191610727565b820191906000526020600020905b81548152906001019060200180831161070a57829003601f168201915b5050505050815260200160028201548152505081526020019060010190610625565b50505050905090565b6000610776604051806060016040528060278152602001611256602791393361086c565b600560003373ffffffffffffffffffffffffffffffffffffffff1673ffffffffffffffffffffffffffffffffffffffff16815260200190815260200160002054905090565b60056020528060005260406000206000915090505481565b610869816040516024016107e79190610e3b565b6040516020818303038152906040527f41304fac000000000000000000000000000000000000000000000000000000007bffffffffffffffffffffffffffffffffffffffffffffffffffffffff19166020820180517bffffffffffffffffffffffffffffffffffffffffffffffffffffffff83818316178352505050506109a4565b50565b6109048282604051602401610882929190610e5d565b6040516020818303038152906040527f319af333000000000000000000000000000000000000000000000000000000007bffffffffffffffffffffffffffffffffffffffffffffffffffffffff19166020820180517bffffffffffffffffffffffffffffffffffffffffffffffffffffffff83818316178352505050506109a4565b5050565b6109a0828260405160240161091e929190610e8d565b6040516020818303038152906040527f9710a9d0000000000000000000000000000000000000000000000000000000007bffffffffffffffffffffffffffffffffffffffffffffffffffffffff19166020820180517bffffffffffffffffffffffffffffffffffffffffffffffffffffffff83818316178352505050506109a4565b5050565b60008151905060006a636f6e736f6c652e6c6f679050602083016000808483855afa5050505050565b8280546109d99061110e565b90600052602060002090601f0160209004810192826109fb5760008555610a42565b82601f10610a1457805160ff1916838001178555610a42565b82800160010185558215610a42579182015b82811115610a41578251825591602001919060010190610a26565b5b509050610a4f9190610a53565b5090565b5b80821115610a6c576000816000905550600101610a54565b5090565b6000610a83610a7e84610f99565b610f68565b905082815260208101848484011115610a9b57600080fd5b610aa68482856110cc565b509392505050565b600081359050610abd8161123e565b92915050565b600082601f830112610ad457600080fd5b8135610ae4848260208601610a70565b91505092915050565b600060208284031215610aff57600080fd5b6000610b0d84828501610aae565b91505092915050565b600060208284031215610b2857600080fd5b600082013567ffffffffffffffff811115610b4257600080fd5b610b4e84828501610ac3565b91505092915050565b6000610b638383610d96565b905092915050565b610b7481611090565b82525050565b610b8381611090565b82525050565b6000610b9482610fd9565b610b9e8185610ffc565b935083602082028501610bb085610fc9565b8060005b85811015610bec5784840389528151610bcd8582610b57565b9450610bd883610fef565b925060208a01995050600181019050610bb4565b50829750879550505050505092915050565b6000610c0982610fe4565b610c138185611018565b9350610c238185602086016110db565b610c2c8161122d565b840191505092915050565b6000610c4282610fe4565b610c4c8185611029565b9350610c5c8185602086016110db565b610c658161122d565b840191505092915050565b6000610c7d603483611029565b91507f547279696e6720746f207769746864726177206d6f7265206d6f6e657920746860008301527f616e2074686520636f6e7472616374206861732e0000000000000000000000006020830152604082019050919050565b6000610ce3602783611029565b91507f4661696c656420746f207769746864726177206d6f6e65792066726f6d20636f60008301527f6e74726163742e000000000000000000000000000000000000000000000000006020830152604082019050919050565b6000610d4960008361100d565b9150600082019050919050565b6000610d63600883611029565b91507f576169742031356d0000000000000000000000000000000000000000000000006000830152602082019050919050565b6000606083016000830151610dae6000860182610b6b565b5060208301518482036020860152610dc68282610bfe565b9150506040830151610ddb6040860182610de6565b508091505092915050565b610def816110c2565b82525050565b610dfe816110c2565b82525050565b6000610e0f82610d3c565b9150819050919050565b60006020820190508181036000830152610e338184610b89565b905092915050565b60006020820190508181036000830152610e558184610c37565b905092915050565b60006040820190508181036000830152610e778185610c37565b9050610e866020830184610b7a565b9392505050565b60006040820190508181036000830152610ea78185610c37565b9050610eb66020830184610df5565b9392505050565b60006020820190508181036000830152610ed681610c70565b9050919050565b60006020820190508181036000830152610ef681610cd6565b9050919050565b60006020820190508181036000830152610f1681610d56565b9050919050565b6000602082019050610f326000830184610df5565b92915050565b6000604082019050610f4d6000830185610df5565b8181036020830152610f5f8184610c37565b90509392505050565b6000604051905081810181811067ffffffffffffffff82111715610f8f57610f8e6111fe565b5b8060405250919050565b600067ffffffffffffffff821115610fb457610fb36111fe565b5b601f19601f8301169050602081019050919050565b6000819050602082019050919050565b600081519050919050565b600081519050919050565b6000602082019050919050565b600082825260208201905092915050565b600081905092915050565b600082825260208201905092915050565b600082825260208201905092915050565b6000611045826110c2565b9150611050836110c2565b9250827fffffffffffffffffffffffffffffffffffffffffffffffffffffffffffffffff0382111561108557611084611171565b5b828201905092915050565b600061109b826110a2565b9050919050565b600073ffffffffffffffffffffffffffffffffffffffff82169050919050565b6000819050919050565b82818337600083830152505050565b60005b838110156110f95780820151818401526020810190506110de565b83811115611108576000848401525b50505050565b6000600282049050600182168061112657607f821691505b6020821081141561113a576111396111cf565b5b50919050565b600061114b826110c2565b9150611156836110c2565b925082611166576111656111a0565b5b828206905092915050565b7f4e487b7100000000000000000000000000000000000000000000000000000000600052601160045260246000fd5b7f4e487b7100000000000000000000000000000000000000000000000000000000600052601260045260246000fd5b7f4e487b7100000000000000000000000000000000000000000000000000000000600052602260045260246000fd5b7f4e487b7100000000000000000000000000000000000000000000000000000000600052604160045260246000fd5b6000601f19601f8301169050919050565b61124781611090565b811461125257600080fd5b5056fe5765206861766520256420746f74616c20776176657320666f7220746865206163636f756e7421a26469706673582212204356781e6e5dfa78b1a1d7bf3520d414401048faf1947309448f141f474dc8b364736f6c63430008000033",
  "linkReferences": {},
  "deployedLinkReferences": {}
}